{
    "_format": "hh-sol-artifact-1",
    "contractName": "InsiderArmyNFT",
    "sourceName": "contracts/InsiderArmyNFT.sol",
    "abi": [
        {
            "inputs": [],
            "stateMutability": "payable",
            "type": "constructor"
        },
        {
            "anonymous": false,
            "inputs": [
                {
                    "indexed": true,
                    "internalType": "address",
                    "name": "owner",
                    "type": "address"
                },
                {
                    "indexed": true,
                    "internalType": "address",
                    "name": "approved",
                    "type": "address"
                },
                {
                    "indexed": true,
                    "internalType": "uint256",
                    "name": "tokenId",
                    "type": "uint256"
                }
            ],
            "name": "Approval",
            "type": "event"
        },
        {
            "anonymous": false,
            "inputs": [
                {
                    "indexed": true,
                    "internalType": "address",
                    "name": "owner",
                    "type": "address"
                },
                {
                    "indexed": true,
                    "internalType": "address",
                    "name": "operator",
                    "type": "address"
                },
                {
                    "indexed": false,
                    "internalType": "bool",
                    "name": "approved",
                    "type": "bool"
                }
            ],
            "name": "ApprovalForAll",
            "type": "event"
        },
        {
            "anonymous": false,
            "inputs": [
                {
                    "indexed": true,
                    "internalType": "address",
                    "name": "previousOwner",
                    "type": "address"
                },
                {
                    "indexed": true,
                    "internalType": "address",
                    "name": "newOwner",
                    "type": "address"
                }
            ],
            "name": "OwnershipTransferred",
            "type": "event"
        },
        {
            "anonymous": false,
            "inputs": [
                {
                    "indexed": true,
                    "internalType": "address",
                    "name": "from",
                    "type": "address"
                },
                {
                    "indexed": true,
                    "internalType": "address",
                    "name": "to",
                    "type": "address"
                },
                {
                    "indexed": true,
                    "internalType": "uint256",
                    "name": "tokenId",
                    "type": "uint256"
                }
            ],
            "name": "Transfer",
            "type": "event"
        },
        {
            "inputs": [
                {
                    "internalType": "address",
                    "name": "to",
                    "type": "address"
                },
                {
                    "internalType": "uint256",
                    "name": "tokenId",
                    "type": "uint256"
                }
            ],
            "name": "approve",
            "outputs": [],
            "stateMutability": "nonpayable",
            "type": "function"
        },
        {
            "inputs": [
                {
                    "internalType": "address",
                    "name": "owner",
                    "type": "address"
                }
            ],
            "name": "balanceOf",
            "outputs": [
                {
                    "internalType": "uint256",
                    "name": "",
                    "type": "uint256"
                }
            ],
            "stateMutability": "view",
            "type": "function"
        },
        {
            "inputs": [
                {
                    "internalType": "uint256",
                    "name": "tokenId",
                    "type": "uint256"
                }
            ],
            "name": "getApproved",
            "outputs": [
                {
                    "internalType": "address",
                    "name": "",
                    "type": "address"
                }
            ],
            "stateMutability": "view",
            "type": "function"
        },
        {
            "inputs": [
                {
                    "internalType": "address",
                    "name": "owner",
                    "type": "address"
                },
                {
                    "internalType": "address",
                    "name": "operator",
                    "type": "address"
                }
            ],
            "name": "isApprovedForAll",
            "outputs": [
                {
                    "internalType": "bool",
                    "name": "",
                    "type": "bool"
                }
            ],
            "stateMutability": "view",
            "type": "function"
        },
        {
            "inputs": [],
            "name": "isPublicMintEnabled",
            "outputs": [
                {
                    "internalType": "bool",
                    "name": "",
                    "type": "bool"
                }
            ],
            "stateMutability": "view",
            "type": "function"
        },
        {
            "inputs": [],
            "name": "maxPerWallet",
            "outputs": [
                {
                    "internalType": "uint256",
                    "name": "",
                    "type": "uint256"
                }
            ],
            "stateMutability": "view",
            "type": "function"
        },
        {
            "inputs": [],
            "name": "maxSupply",
            "outputs": [
                {
                    "internalType": "uint256",
                    "name": "",
                    "type": "uint256"
                }
            ],
            "stateMutability": "view",
            "type": "function"
        },
        {
            "inputs": [
                {
                    "internalType": "uint256",
                    "name": "quantity_",
                    "type": "uint256"
                }
            ],
            "name": "mint",
            "outputs": [],
            "stateMutability": "payable",
            "type": "function"
        },
        {
            "inputs": [],
            "name": "mintPrice",
            "outputs": [
                {
                    "internalType": "uint256",
                    "name": "",
                    "type": "uint256"
                }
            ],
            "stateMutability": "view",
            "type": "function"
        },
        {
            "inputs": [],
            "name": "name",
            "outputs": [
                {
                    "internalType": "string",
                    "name": "",
                    "type": "string"
                }
            ],
            "stateMutability": "view",
            "type": "function"
        },
        {
            "inputs": [],
            "name": "owner",
            "outputs": [
                {
                    "internalType": "address",
                    "name": "",
                    "type": "address"
                }
            ],
            "stateMutability": "view",
            "type": "function"
        },
        {
            "inputs": [
                {
                    "internalType": "uint256",
                    "name": "tokenId",
                    "type": "uint256"
                }
            ],
            "name": "ownerOf",
            "outputs": [
                {
                    "internalType": "address",
                    "name": "",
                    "type": "address"
                }
            ],
            "stateMutability": "view",
            "type": "function"
        },
        {
            "inputs": [],
            "name": "renounceOwnership",
            "outputs": [],
            "stateMutability": "nonpayable",
            "type": "function"
        },
        {
            "inputs": [
                {
                    "internalType": "address",
                    "name": "from",
                    "type": "address"
                },
                {
                    "internalType": "address",
                    "name": "to",
                    "type": "address"
                },
                {
                    "internalType": "uint256",
                    "name": "tokenId",
                    "type": "uint256"
                }
            ],
            "name": "safeTransferFrom",
            "outputs": [],
            "stateMutability": "nonpayable",
            "type": "function"
        },
        {
            "inputs": [
                {
                    "internalType": "address",
                    "name": "from",
                    "type": "address"
                },
                {
                    "internalType": "address",
                    "name": "to",
                    "type": "address"
                },
                {
                    "internalType": "uint256",
                    "name": "tokenId",
                    "type": "uint256"
                },
                {
                    "internalType": "bytes",
                    "name": "data",
                    "type": "bytes"
                }
            ],
            "name": "safeTransferFrom",
            "outputs": [],
            "stateMutability": "nonpayable",
            "type": "function"
        },
        {
            "inputs": [
                {
                    "internalType": "address",
                    "name": "operator",
                    "type": "address"
                },
                {
                    "internalType": "bool",
                    "name": "approved",
                    "type": "bool"
                }
            ],
            "name": "setApprovalForAll",
            "outputs": [],
            "stateMutability": "nonpayable",
            "type": "function"
        },
        {
            "inputs": [
                {
                    "internalType": "string",
                    "name": "baseTokenUri_",
                    "type": "string"
                }
            ],
            "name": "setBaseTokenUri",
            "outputs": [],
            "stateMutability": "nonpayable",
            "type": "function"
        },
        {
            "inputs": [
                {
                    "internalType": "bool",
                    "name": "isPublicMintEnabled_",
                    "type": "bool"
                }
            ],
            "name": "setIsPublicMintEnabled",
            "outputs": [],
            "stateMutability": "nonpayable",
            "type": "function"
        },
        {
            "inputs": [
                {
                    "internalType": "bytes4",
                    "name": "interfaceId",
                    "type": "bytes4"
                }
            ],
            "name": "supportsInterface",
            "outputs": [
                {
                    "internalType": "bool",
                    "name": "",
                    "type": "bool"
                }
            ],
            "stateMutability": "view",
            "type": "function"
        },
        {
            "inputs": [],
            "name": "symbol",
            "outputs": [
                {
                    "internalType": "string",
                    "name": "",
                    "type": "string"
                }
            ],
            "stateMutability": "view",
            "type": "function"
        },
        {
            "inputs": [
                {
                    "internalType": "uint256",
                    "name": "tokenId_",
                    "type": "uint256"
                }
            ],
            "name": "tokenURI",
            "outputs": [
                {
                    "internalType": "string",
                    "name": "",
                    "type": "string"
                }
            ],
            "stateMutability": "view",
            "type": "function"
        },
        {
            "inputs": [],
            "name": "totalSupply",
            "outputs": [
                {
                    "internalType": "uint256",
                    "name": "",
                    "type": "uint256"
                }
            ],
            "stateMutability": "view",
            "type": "function"
        },
        {
            "inputs": [
                {
                    "internalType": "address",
                    "name": "from",
                    "type": "address"
                },
                {
                    "internalType": "address",
                    "name": "to",
                    "type": "address"
                },
                {
                    "internalType": "uint256",
                    "name": "tokenId",
                    "type": "uint256"
                }
            ],
            "name": "transferFrom",
            "outputs": [],
            "stateMutability": "nonpayable",
            "type": "function"
        },
        {
            "inputs": [
                {
                    "internalType": "address",
                    "name": "newOwner",
                    "type": "address"
                }
            ],
            "name": "transferOwnership",
            "outputs": [],
            "stateMutability": "nonpayable",
            "type": "function"
        },
        {
            "inputs": [],
            "name": "withdraw",
            "outputs": [],
            "stateMutability": "nonpayable",
            "type": "function"
        },
        {
            "inputs": [],
            "name": "withdrawWallet",
            "outputs": [
                {
                    "internalType": "address payable",
                    "name": "",
                    "type": "address"
                }
            ],
            "stateMutability": "view",
            "type": "function"
        }
    ],
    "bytecode": "0x60806040526040518060400160405280600b81526020017f496e736964657241726d790000000000000000000000000000000000000000008152506040518060400160405280600281526020017f4941000000000000000000000000000000000000000000000000000000000000815250816000908051906020019062000088929190620001bf565b508060019080519060200190620000a1929190620001bf565b505050620000c4620000b8620000f160201b60201c565b620000f960201b60201c565b60006008819055506103e86009819055506003600a8190555066470de4df820000600781905550620002d4565b600033905090565b6000600660009054906101000a900473ffffffffffffffffffffffffffffffffffffffff16905081600660006101000a81548173ffffffffffffffffffffffffffffffffffffffff021916908373ffffffffffffffffffffffffffffffffffffffff1602179055508173ffffffffffffffffffffffffffffffffffffffff168173ffffffffffffffffffffffffffffffffffffffff167f8be0079c531659141344cd1fd0a4f28419497f9722a3daafe3b4186f6b6457e060405160405180910390a35050565b828054620001cd906200026f565b90600052602060002090601f016020900481019282620001f157600085556200023d565b82601f106200020c57805160ff19168380011785556200023d565b828001600101855582156200023d579182015b828111156200023c5782518255916020019190600101906200021f565b5b5090506200024c919062000250565b5090565b5b808211156200026b57600081600090555060010162000251565b5090565b600060028204905060018216806200028857607f821691505b602082108114156200029f576200029e620002a5565b5b50919050565b7f4e487b7100000000000000000000000000000000000000000000000000000000600052602260045260246000fd5b61357280620002e46000396000f3fe6080604052600436106101815760003560e01c806370a08231116100d1578063a0712d681161008a578063c87b56dd11610064578063c87b56dd1461053b578063d5abeb0114610578578063e985e9c5146105a3578063f2fde38b146105e057610181565b8063a0712d68146104cd578063a22cb465146104e9578063b88d4fde1461051257610181565b806370a08231146103cf578063715018a61461040c57806385d178f4146104235780638da5cb5b1461044e57806395652cfa1461047957806395d89b41146104a257610181565b80632373ac221161013e57806342842e0e1161011857806342842e0e14610313578063453c23101461033c5780636352211e146103675780636817c76c146103a457610181565b80632373ac22146102aa57806323b872dd146102d35780633ccfd60b146102fc57610181565b80630116bc2d1461018657806301ffc9a7146101b157806306fdde03146101ee578063081812fc14610219578063095ea7b31461025657806318160ddd1461027f575b600080fd5b34801561019257600080fd5b5061019b610609565b6040516101a89190612a46565b60405180910390f35b3480156101bd57600080fd5b506101d860048036038101906101d39190612483565b61061c565b6040516101e59190612a46565b60405180910390f35b3480156101fa57600080fd5b506102036106fe565b6040516102109190612a61565b60405180910390f35b34801561022557600080fd5b50610240600480360381019061023b919061251a565b610790565b60405161024d91906129c4565b60405180910390f35b34801561026257600080fd5b5061027d6004803603810190610278919061241e565b6107d6565b005b34801561028b57600080fd5b506102946108ee565b6040516102a19190612ce3565b60405180910390f35b3480156102b657600080fd5b506102d160048036038101906102cc919061245a565b6108f4565b005b3480156102df57600080fd5b506102fa60048036038101906102f59190612318565b610919565b005b34801561030857600080fd5b50610311610979565b005b34801561031f57600080fd5b5061033a60048036038101906103359190612318565b610a52565b005b34801561034857600080fd5b50610351610a72565b60405161035e9190612ce3565b60405180910390f35b34801561037357600080fd5b5061038e6004803603810190610389919061251a565b610a78565b60405161039b91906129c4565b60405180910390f35b3480156103b057600080fd5b506103b9610aff565b6040516103c69190612ce3565b60405180910390f35b3480156103db57600080fd5b506103f660048036038101906103f191906122b3565b610b05565b6040516104039190612ce3565b60405180910390f35b34801561041857600080fd5b50610421610bbd565b005b34801561042f57600080fd5b50610438610bd1565b60405161044591906129df565b60405180910390f35b34801561045a57600080fd5b50610463610bf7565b60405161047091906129c4565b60405180910390f35b34801561048557600080fd5b506104a0600480360381019061049b91906124d5565b610c21565b005b3480156104ae57600080fd5b506104b7610c3f565b6040516104c49190612a61565b60405180910390f35b6104e760048036038101906104e2919061251a565b610cd1565b005b3480156104f557600080fd5b50610510600480360381019061050b91906123e2565b610e9b565b005b34801561051e57600080fd5b5061053960048036038101906105349190612367565b610eb1565b005b34801561054757600080fd5b50610562600480360381019061055d919061251a565b610f13565b60405161056f9190612a61565b60405180910390f35b34801561058457600080fd5b5061058d610f8f565b60405161059a9190612ce3565b60405180910390f35b3480156105af57600080fd5b506105ca60048036038101906105c591906122dc565b610f95565b6040516105d79190612a46565b60405180910390f35b3480156105ec57600080fd5b50610607600480360381019061060291906122b3565b611029565b005b600b60009054906101000a900460ff1681565b60007f80ac58cd000000000000000000000000000000000000000000000000000000007bffffffffffffffffffffffffffffffffffffffffffffffffffffffff1916827bffffffffffffffffffffffffffffffffffffffffffffffffffffffff191614806106e757507f5b5e139f000000000000000000000000000000000000000000000000000000007bffffffffffffffffffffffffffffffffffffffffffffffffffffffff1916827bffffffffffffffffffffffffffffffffffffffffffffffffffffffff1916145b806106f757506106f6826110ad565b5b9050919050565b60606000805461070d90612f2f565b80601f016020809104026020016040519081016040528092919081815260200182805461073990612f2f565b80156107865780601f1061075b57610100808354040283529160200191610786565b820191906000526020600020905b81548152906001019060200180831161076957829003601f168201915b5050505050905090565b600061079b82611117565b6004600083815260200190815260200160002060009054906101000a900473ffffffffffffffffffffffffffffffffffffffff169050919050565b60006107e182610a78565b90508073ffffffffffffffffffffffffffffffffffffffff168373ffffffffffffffffffffffffffffffffffffffff161415610852576040517f08c379a000000000000000000000000000000000000000000000000000000000815260040161084990612c43565b60405180910390fd5b8073ffffffffffffffffffffffffffffffffffffffff16610871611162565b73ffffffffffffffffffffffffffffffffffffffff1614806108a0575061089f8161089a611162565b610f95565b5b6108df576040517f08c379a00000000000000000000000000000000000000000000000000000000081526004016108d690612ca3565b60405180910390fd5b6108e9838361116a565b505050565b60085481565b6108fc611223565b80600b60006101000a81548160ff02191690831515021790555050565b61092a610924611162565b826112a1565b610969576040517f08c379a000000000000000000000000000000000000000000000000000000000815260040161096090612a83565b60405180910390fd5b610974838383611336565b505050565b610981611223565b6000600d60009054906101000a900473ffffffffffffffffffffffffffffffffffffffff1673ffffffffffffffffffffffffffffffffffffffff16476040516109c9906129af565b60006040518083038185875af1925050503d8060008114610a06576040519150601f19603f3d011682016040523d82523d6000602084013e610a0b565b606091505b5050905080610a4f576040517f08c379a0000000000000000000000000000000000000000000000000000000008152600401610a4690612cc3565b60405180910390fd5b50565b610a6d83838360405180602001604052806000815250610eb1565b505050565b600a5481565b600080610a8483611630565b9050600073ffffffffffffffffffffffffffffffffffffffff168173ffffffffffffffffffffffffffffffffffffffff161415610af6576040517f08c379a0000000000000000000000000000000000000000000000000000000008152600401610aed90612c23565b60405180910390fd5b80915050919050565b60075481565b60008073ffffffffffffffffffffffffffffffffffffffff168273ffffffffffffffffffffffffffffffffffffffff161415610b76576040517f08c379a0000000000000000000000000000000000000000000000000000000008152600401610b6d90612ba3565b60405180910390fd5b600360008373ffffffffffffffffffffffffffffffffffffffff1673ffffffffffffffffffffffffffffffffffffffff168152602001908152602001600020549050919050565b610bc5611223565b610bcf600061166d565b565b600d60009054906101000a900473ffffffffffffffffffffffffffffffffffffffff1681565b6000600660009054906101000a900473ffffffffffffffffffffffffffffffffffffffff16905090565b610c29611223565b8181600c9190610c3a9291906120f5565b505050565b606060018054610c4e90612f2f565b80601f0160208091040260200160405190810160405280929190818152602001828054610c7a90612f2f565b8015610cc75780601f10610c9c57610100808354040283529160200191610cc7565b820191906000526020600020905b815481529060010190602001808311610caa57829003601f168201915b5050505050905090565b600b60009054906101000a900460ff16610d20576040517f08c379a0000000000000000000000000000000000000000000000000000000008152600401610d1790612c03565b60405180910390fd5b60095481600854610d319190612db7565b1115610d72576040517f08c379a0000000000000000000000000000000000000000000000000000000008152600401610d6990612b83565b60405180910390fd5b80600e60003373ffffffffffffffffffffffffffffffffffffffff1673ffffffffffffffffffffffffffffffffffffffff168152602001908152602001600020541115610df4576040517f08c379a0000000000000000000000000000000000000000000000000000000008152600401610deb90612b63565b60405180910390fd5b60075481610e029190612e0d565b3414610e43576040517f08c379a0000000000000000000000000000000000000000000000000000000008152600401610e3a90612c83565b60405180910390fd5b60005b81811015610e975760006001600854610e5f9190612db7565b905060086000815480929190610e7490612f92565b9190505550610e833382611733565b508080610e8f90612f92565b915050610e46565b5050565b610ead610ea6611162565b8383611751565b5050565b610ec2610ebc611162565b836112a1565b610f01576040517f08c379a0000000000000000000000000000000000000000000000000000000008152600401610ef890612a83565b60405180910390fd5b610f0d848484846118be565b50505050565b6060610f1e8261191a565b610f5d576040517f08c379a0000000000000000000000000000000000000000000000000000000008152600401610f5490612c63565b60405180910390fd5b600c610f688361195b565b604051602001610f79929190612980565b6040516020818303038152906040529050919050565b60095481565b6000600560008473ffffffffffffffffffffffffffffffffffffffff1673ffffffffffffffffffffffffffffffffffffffff16815260200190815260200160002060008373ffffffffffffffffffffffffffffffffffffffff1673ffffffffffffffffffffffffffffffffffffffff16815260200190815260200160002060009054906101000a900460ff16905092915050565b611031611223565b600073ffffffffffffffffffffffffffffffffffffffff168173ffffffffffffffffffffffffffffffffffffffff1614156110a1576040517f08c379a000000000000000000000000000000000000000000000000000000000815260040161109890612ac3565b60405180910390fd5b6110aa8161166d565b50565b60007f01ffc9a7000000000000000000000000000000000000000000000000000000007bffffffffffffffffffffffffffffffffffffffffffffffffffffffff1916827bffffffffffffffffffffffffffffffffffffffffffffffffffffffff1916149050919050565b6111208161191a565b61115f576040517f08c379a000000000000000000000000000000000000000000000000000000000815260040161115690612c23565b60405180910390fd5b50565b600033905090565b816004600083815260200190815260200160002060006101000a81548173ffffffffffffffffffffffffffffffffffffffff021916908373ffffffffffffffffffffffffffffffffffffffff160217905550808273ffffffffffffffffffffffffffffffffffffffff166111dd83610a78565b73ffffffffffffffffffffffffffffffffffffffff167f8c5be1e5ebec7d5bd14f71427d1e84f3dd0314c0f7b2291e5b200ac8c7c3b92560405160405180910390a45050565b61122b611162565b73ffffffffffffffffffffffffffffffffffffffff16611249610bf7565b73ffffffffffffffffffffffffffffffffffffffff161461129f576040517f08c379a000000000000000000000000000000000000000000000000000000000815260040161129690612be3565b60405180910390fd5b565b6000806112ad83610a78565b90508073ffffffffffffffffffffffffffffffffffffffff168473ffffffffffffffffffffffffffffffffffffffff1614806112ef57506112ee8185610f95565b5b8061132d57508373ffffffffffffffffffffffffffffffffffffffff1661131584610790565b73ffffffffffffffffffffffffffffffffffffffff16145b91505092915050565b8273ffffffffffffffffffffffffffffffffffffffff1661135682610a78565b73ffffffffffffffffffffffffffffffffffffffff16146113ac576040517f08c379a00000000000000000000000000000000000000000000000000000000081526004016113a390612ae3565b60405180910390fd5b600073ffffffffffffffffffffffffffffffffffffffff168273ffffffffffffffffffffffffffffffffffffffff16141561141c576040517f08c379a000000000000000000000000000000000000000000000000000000000815260040161141390612b23565b60405180910390fd5b6114298383836001611a7f565b8273ffffffffffffffffffffffffffffffffffffffff1661144982610a78565b73ffffffffffffffffffffffffffffffffffffffff161461149f576040517f08c379a000000000000000000000000000000000000000000000000000000000815260040161149690612ae3565b60405180910390fd5b6004600082815260200190815260200160002060006101000a81549073ffffffffffffffffffffffffffffffffffffffff02191690556001600360008573ffffffffffffffffffffffffffffffffffffffff1673ffffffffffffffffffffffffffffffffffffffff168152602001908152602001600020600082825403925050819055506001600360008473ffffffffffffffffffffffffffffffffffffffff1673ffffffffffffffffffffffffffffffffffffffff16815260200190815260200160002060008282540192505081905550816002600083815260200190815260200160002060006101000a81548173ffffffffffffffffffffffffffffffffffffffff021916908373ffffffffffffffffffffffffffffffffffffffff160217905550808273ffffffffffffffffffffffffffffffffffffffff168473ffffffffffffffffffffffffffffffffffffffff167fddf252ad1be2c89b69c2b068fc378daa952ba7f163c4a11628f55a4df523b3ef60405160405180910390a461162b8383836001611a85565b505050565b60006002600083815260200190815260200160002060009054906101000a900473ffffffffffffffffffffffffffffffffffffffff169050919050565b6000600660009054906101000a900473ffffffffffffffffffffffffffffffffffffffff16905081600660006101000a81548173ffffffffffffffffffffffffffffffffffffffff021916908373ffffffffffffffffffffffffffffffffffffffff1602179055508173ffffffffffffffffffffffffffffffffffffffff168173ffffffffffffffffffffffffffffffffffffffff167f8be0079c531659141344cd1fd0a4f28419497f9722a3daafe3b4186f6b6457e060405160405180910390a35050565b61174d828260405180602001604052806000815250611a8b565b5050565b8173ffffffffffffffffffffffffffffffffffffffff168373ffffffffffffffffffffffffffffffffffffffff1614156117c0576040517f08c379a00000000000000000000000000000000000000000000000000000000081526004016117b790612b43565b60405180910390fd5b80600560008573ffffffffffffffffffffffffffffffffffffffff1673ffffffffffffffffffffffffffffffffffffffff16815260200190815260200160002060008473ffffffffffffffffffffffffffffffffffffffff1673ffffffffffffffffffffffffffffffffffffffff16815260200190815260200160002060006101000a81548160ff0219169083151502179055508173ffffffffffffffffffffffffffffffffffffffff168373ffffffffffffffffffffffffffffffffffffffff167f17307eab39ab6107e8899845ad3d59bd9653f200f220920489ca2b5937696c31836040516118b19190612a46565b60405180910390a3505050565b6118c9848484611336565b6118d584848484611ae6565b611914576040517f08c379a000000000000000000000000000000000000000000000000000000000815260040161190b90612aa3565b60405180910390fd5b50505050565b60008073ffffffffffffffffffffffffffffffffffffffff1661193c83611630565b73ffffffffffffffffffffffffffffffffffffffff1614159050919050565b60606000600161196a84611c7d565b01905060008167ffffffffffffffff8111156119af577f4e487b7100000000000000000000000000000000000000000000000000000000600052604160045260246000fd5b6040519080825280601f01601f1916602001820160405280156119e15781602001600182028036833780820191505090505b509050600082602001820190505b600115611a74578080600190039150507f3031323334353637383961626364656600000000000000000000000000000000600a86061a8153600a8581611a5e577f4e487b7100000000000000000000000000000000000000000000000000000000600052601260045260246000fd5b0494506000851415611a6f57611a74565b6119ef565b819350505050919050565b50505050565b50505050565b611a958383611eb4565b611aa26000848484611ae6565b611ae1576040517f08c379a0000000000000000000000000000000000000000000000000000000008152600401611ad890612aa3565b60405180910390fd5b505050565b6000611b078473ffffffffffffffffffffffffffffffffffffffff166120d2565b15611c70578373ffffffffffffffffffffffffffffffffffffffff1663150b7a02611b30611162565b8786866040518563ffffffff1660e01b8152600401611b5294939291906129fa565b602060405180830381600087803b158015611b6c57600080fd5b505af1925050508015611b9d57506040513d601f19601f82011682018060405250810190611b9a91906124ac565b60015b611c20573d8060008114611bcd576040519150601f19603f3d011682016040523d82523d6000602084013e611bd2565b606091505b50600081511415611c18576040517f08c379a0000000000000000000000000000000000000000000000000000000008152600401611c0f90612aa3565b60405180910390fd5b805181602001fd5b63150b7a0260e01b7bffffffffffffffffffffffffffffffffffffffffffffffffffffffff1916817bffffffffffffffffffffffffffffffffffffffffffffffffffffffff191614915050611c75565b600190505b949350505050565b600080600090507a184f03e93ff9f4daa797ed6e38ed64bf6a1f0100000000000000008310611d01577a184f03e93ff9f4daa797ed6e38ed64bf6a1f0100000000000000008381611cf7577f4e487b7100000000000000000000000000000000000000000000000000000000600052601260045260246000fd5b0492506040810190505b6d04ee2d6d415b85acef81000000008310611d64576d04ee2d6d415b85acef81000000008381611d5a577f4e487b7100000000000000000000000000000000000000000000000000000000600052601260045260246000fd5b0492506020810190505b662386f26fc100008310611db957662386f26fc100008381611daf577f4e487b7100000000000000000000000000000000000000000000000000000000600052601260045260246000fd5b0492506010810190505b6305f5e1008310611e08576305f5e1008381611dfe577f4e487b7100000000000000000000000000000000000000000000000000000000600052601260045260246000fd5b0492506008810190505b6127108310611e53576127108381611e49577f4e487b7100000000000000000000000000000000000000000000000000000000600052601260045260246000fd5b0492506004810190505b60648310611e9c5760648381611e92577f4e487b7100000000000000000000000000000000000000000000000000000000600052601260045260246000fd5b0492506002810190505b600a8310611eab576001810190505b80915050919050565b600073ffffffffffffffffffffffffffffffffffffffff168273ffffffffffffffffffffffffffffffffffffffff161415611f24576040517f08c379a0000000000000000000000000000000000000000000000000000000008152600401611f1b90612bc3565b60405180910390fd5b611f2d8161191a565b15611f6d576040517f08c379a0000000000000000000000000000000000000000000000000000000008152600401611f6490612b03565b60405180910390fd5b611f7b600083836001611a7f565b611f848161191a565b15611fc4576040517f08c379a0000000000000000000000000000000000000000000000000000000008152600401611fbb90612b03565b60405180910390fd5b6001600360008473ffffffffffffffffffffffffffffffffffffffff1673ffffffffffffffffffffffffffffffffffffffff16815260200190815260200160002060008282540192505081905550816002600083815260200190815260200160002060006101000a81548173ffffffffffffffffffffffffffffffffffffffff021916908373ffffffffffffffffffffffffffffffffffffffff160217905550808273ffffffffffffffffffffffffffffffffffffffff16600073ffffffffffffffffffffffffffffffffffffffff167fddf252ad1be2c89b69c2b068fc378daa952ba7f163c4a11628f55a4df523b3ef60405160405180910390a46120ce600083836001611a85565b5050565b6000808273ffffffffffffffffffffffffffffffffffffffff163b119050919050565b82805461210190612f2f565b90600052602060002090601f016020900481019282612123576000855561216a565b82601f1061213c57803560ff191683800117855561216a565b8280016001018555821561216a579182015b8281111561216957823582559160200191906001019061214e565b5b509050612177919061217b565b5090565b5b8082111561219457600081600090555060010161217c565b5090565b60006121ab6121a684612d23565b612cfe565b9050828152602081018484840111156121c357600080fd5b6121ce848285612eed565b509392505050565b6000813590506121e5816134e0565b92915050565b6000813590506121fa816134f7565b92915050565b60008135905061220f8161350e565b92915050565b6000815190506122248161350e565b92915050565b600082601f83011261223b57600080fd5b813561224b848260208601612198565b91505092915050565b60008083601f84011261226657600080fd5b8235905067ffffffffffffffff81111561227f57600080fd5b60208301915083600182028301111561229757600080fd5b9250929050565b6000813590506122ad81613525565b92915050565b6000602082840312156122c557600080fd5b60006122d3848285016121d6565b91505092915050565b600080604083850312156122ef57600080fd5b60006122fd858286016121d6565b925050602061230e858286016121d6565b9150509250929050565b60008060006060848603121561232d57600080fd5b600061233b868287016121d6565b935050602061234c868287016121d6565b925050604061235d8682870161229e565b9150509250925092565b6000806000806080858703121561237d57600080fd5b600061238b878288016121d6565b945050602061239c878288016121d6565b93505060406123ad8782880161229e565b925050606085013567ffffffffffffffff8111156123ca57600080fd5b6123d68782880161222a565b91505092959194509250565b600080604083850312156123f557600080fd5b6000612403858286016121d6565b9250506020612414858286016121eb565b9150509250929050565b6000806040838503121561243157600080fd5b600061243f858286016121d6565b92505060206124508582860161229e565b9150509250929050565b60006020828403121561246c57600080fd5b600061247a848285016121eb565b91505092915050565b60006020828403121561249557600080fd5b60006124a384828501612200565b91505092915050565b6000602082840312156124be57600080fd5b60006124cc84828501612215565b91505092915050565b600080602083850312156124e857600080fd5b600083013567ffffffffffffffff81111561250257600080fd5b61250e85828601612254565b92509250509250929050565b60006020828403121561252c57600080fd5b600061253a8482850161229e565b91505092915050565b61254c81612e79565b82525050565b61255b81612e67565b82525050565b61256a81612e8b565b82525050565b600061257b82612d69565b6125858185612d7f565b9350612595818560208601612efc565b61259e81613068565b840191505092915050565b60006125b482612d74565b6125be8185612d9b565b93506125ce818560208601612efc565b6125d781613068565b840191505092915050565b60006125ed82612d74565b6125f78185612dac565b9350612607818560208601612efc565b80840191505092915050565b6000815461262081612f2f565b61262a8186612dac565b94506001821660008114612645576001811461265657612689565b60ff19831686528186019350612689565b61265f85612d54565b60005b8381101561268157815481890152600182019150602081019050612662565b838801955050505b50505092915050565b600061269f602d83612d9b565b91506126aa82613079565b604082019050919050565b60006126c2603283612d9b565b91506126cd826130c8565b604082019050919050565b60006126e5602683612d9b565b91506126f082613117565b604082019050919050565b6000612708602583612d9b565b915061271382613166565b604082019050919050565b600061272b601c83612d9b565b9150612736826131b5565b602082019050919050565b600061274e602483612d9b565b9150612759826131de565b604082019050919050565b6000612771601983612d9b565b915061277c8261322d565b602082019050919050565b6000612794601e83612d9b565b915061279f82613256565b602082019050919050565b60006127b7600883612d9b565b91506127c28261327f565b602082019050919050565b60006127da602983612d9b565b91506127e5826132a8565b604082019050919050565b60006127fd602083612d9b565b9150612808826132f7565b602082019050919050565b6000612820600583612dac565b915061282b82613320565b600582019050919050565b6000612843602083612d9b565b915061284e82613349565b602082019050919050565b6000612866601383612d9b565b915061287182613372565b602082019050919050565b6000612889601883612d9b565b91506128948261339b565b602082019050919050565b60006128ac602183612d9b565b91506128b7826133c4565b604082019050919050565b60006128cf601383612d9b565b91506128da82613413565b602082019050919050565b60006128f2601283612d9b565b91506128fd8261343c565b602082019050919050565b6000612915600083612d90565b915061292082613465565b600082019050919050565b6000612938603d83612d9b565b915061294382613468565b604082019050919050565b600061295b600f83612d9b565b9150612966826134b7565b602082019050919050565b61297a81612ee3565b82525050565b600061298c8285612613565b915061299882846125e2565b91506129a382612813565b91508190509392505050565b60006129ba82612908565b9150819050919050565b60006020820190506129d96000830184612552565b92915050565b60006020820190506129f46000830184612543565b92915050565b6000608082019050612a0f6000830187612552565b612a1c6020830186612552565b612a296040830185612971565b8181036060830152612a3b8184612570565b905095945050505050565b6000602082019050612a5b6000830184612561565b92915050565b60006020820190508181036000830152612a7b81846125a9565b905092915050565b60006020820190508181036000830152612a9c81612692565b9050919050565b60006020820190508181036000830152612abc816126b5565b9050919050565b60006020820190508181036000830152612adc816126d8565b9050919050565b60006020820190508181036000830152612afc816126fb565b9050919050565b60006020820190508181036000830152612b1c8161271e565b9050919050565b60006020820190508181036000830152612b3c81612741565b9050919050565b60006020820190508181036000830152612b5c81612764565b9050919050565b60006020820190508181036000830152612b7c81612787565b9050919050565b60006020820190508181036000830152612b9c816127aa565b9050919050565b60006020820190508181036000830152612bbc816127cd565b9050919050565b60006020820190508181036000830152612bdc816127f0565b9050919050565b60006020820190508181036000830152612bfc81612836565b9050919050565b60006020820190508181036000830152612c1c81612859565b9050919050565b60006020820190508181036000830152612c3c8161287c565b9050919050565b60006020820190508181036000830152612c5c8161289f565b9050919050565b60006020820190508181036000830152612c7c816128c2565b9050919050565b60006020820190508181036000830152612c9c816128e5565b9050919050565b60006020820190508181036000830152612cbc8161292b565b9050919050565b60006020820190508181036000830152612cdc8161294e565b9050919050565b6000602082019050612cf86000830184612971565b92915050565b6000612d08612d19565b9050612d148282612f61565b919050565b6000604051905090565b600067ffffffffffffffff821115612d3e57612d3d613039565b5b612d4782613068565b9050602081019050919050565b60008190508160005260206000209050919050565b600081519050919050565b600081519050919050565b600082825260208201905092915050565b600081905092915050565b600082825260208201905092915050565b600081905092915050565b6000612dc282612ee3565b9150612dcd83612ee3565b9250827fffffffffffffffffffffffffffffffffffffffffffffffffffffffffffffffff03821115612e0257612e01612fdb565b5b828201905092915050565b6000612e1882612ee3565b9150612e2383612ee3565b9250817fffffffffffffffffffffffffffffffffffffffffffffffffffffffffffffffff0483118215151615612e5c57612e5b612fdb565b5b828202905092915050565b6000612e7282612ec3565b9050919050565b6000612e8482612ec3565b9050919050565b60008115159050919050565b60007fffffffff0000000000000000000000000000000000000000000000000000000082169050919050565b600073ffffffffffffffffffffffffffffffffffffffff82169050919050565b6000819050919050565b82818337600083830152505050565b60005b83811015612f1a578082015181840152602081019050612eff565b83811115612f29576000848401525b50505050565b60006002820490506001821680612f4757607f821691505b60208210811415612f5b57612f5a61300a565b5b50919050565b612f6a82613068565b810181811067ffffffffffffffff82111715612f8957612f88613039565b5b80604052505050565b6000612f9d82612ee3565b91507fffffffffffffffffffffffffffffffffffffffffffffffffffffffffffffffff821415612fd057612fcf612fdb565b5b600182019050919050565b7f4e487b7100000000000000000000000000000000000000000000000000000000600052601160045260246000fd5b7f4e487b7100000000000000000000000000000000000000000000000000000000600052602260045260246000fd5b7f4e487b7100000000000000000000000000000000000000000000000000000000600052604160045260246000fd5b6000601f19601f8301169050919050565b7f4552433732313a2063616c6c6572206973206e6f7420746f6b656e206f776e6560008201527f72206f7220617070726f76656400000000000000000000000000000000000000602082015250565b7f4552433732313a207472616e7366657220746f206e6f6e20455243373231526560008201527f63656976657220696d706c656d656e7465720000000000000000000000000000602082015250565b7f4f776e61626c653a206e6577206f776e657220697320746865207a65726f206160008201527f6464726573730000000000000000000000000000000000000000000000000000602082015250565b7f4552433732313a207472616e736665722066726f6d20696e636f72726563742060008201527f6f776e6572000000000000000000000000000000000000000000000000000000602082015250565b7f4552433732313a20746f6b656e20616c7265616479206d696e74656400000000600082015250565b7f4552433732313a207472616e7366657220746f20746865207a65726f2061646460008201527f7265737300000000000000000000000000000000000000000000000000000000602082015250565b7f4552433732313a20617070726f766520746f2063616c6c657200000000000000600082015250565b7f596f7520616c7265616479206861766520746f6f206d616e79204e4654730000600082015250565b7f736f6c64206f7574000000000000000000000000000000000000000000000000600082015250565b7f4552433732313a2061646472657373207a65726f206973206e6f74206120766160008201527f6c6964206f776e65720000000000000000000000000000000000000000000000602082015250565b7f4552433732313a206d696e7420746f20746865207a65726f2061646472657373600082015250565b7f2e6a736f6e000000000000000000000000000000000000000000000000000000600082015250565b7f4f776e61626c653a2063616c6c6572206973206e6f7420746865206f776e6572600082015250565b7f6d696e74696e67206e6f7420656e61626c657300000000000000000000000000600082015250565b7f4552433732313a20696e76616c696420746f6b656e2049440000000000000000600082015250565b7f4552433732313a20617070726f76616c20746f2063757272656e74206f776e6560008201527f7200000000000000000000000000000000000000000000000000000000000000602082015250565b7f746f6b656e204944206e6f742065786973742100000000000000000000000000600082015250565b7f6e6f7420656e6f7567687420666f756e64730000000000000000000000000000600082015250565b50565b7f4552433732313a20617070726f76652063616c6c6572206973206e6f7420746f60008201527f6b656e206f776e6572206f7220617070726f76656420666f7220616c6c000000602082015250565b7f7769746864726177206661696c65640000000000000000000000000000000000600082015250565b6134e981612e67565b81146134f457600080fd5b50565b61350081612e8b565b811461350b57600080fd5b50565b61351781612e97565b811461352257600080fd5b50565b61352e81612ee3565b811461353957600080fd5b5056fea2646970667358221220a7bb3bd0380a1464d71fbd35f8de6d0397ad602cc41d2e18d7ea7b0aa9097b8664736f6c63430008040033",
    "linkReferences": {},
    "deployedLinkReferences": {}
}